{
  "contractName": "CryptoChickens",
  "abi": [
    {
      "inputs": [],
      "payable": false,
      "stateMutability": "nonpayable",
      "type": "constructor"
    },
    {
      "anonymous": false,
      "inputs": [
        {
          "indexed": true,
          "internalType": "address",
          "name": "owner",
          "type": "address"
        },
        {
          "indexed": true,
          "internalType": "address",
          "name": "approved",
          "type": "address"
        },
        {
          "indexed": true,
          "internalType": "uint256",
          "name": "tokenId",
          "type": "uint256"
        }
      ],
      "name": "Approval",
      "type": "event"
    },
    {
      "anonymous": false,
      "inputs": [
        {
          "indexed": true,
          "internalType": "address",
          "name": "owner",
          "type": "address"
        },
        {
          "indexed": true,
          "internalType": "address",
          "name": "operator",
          "type": "address"
        },
        {
          "indexed": false,
          "internalType": "bool",
          "name": "approved",
          "type": "bool"
        }
      ],
      "name": "ApprovalForAll",
      "type": "event"
    },
    {
      "anonymous": false,
      "inputs": [
        {
          "indexed": true,
          "internalType": "uint256",
          "name": "id",
          "type": "uint256"
        }
      ],
      "name": "CreateCommonChicken",
      "type": "event"
    },
    {
      "anonymous": false,
      "inputs": [
        {
          "indexed": true,
          "internalType": "uint256",
          "name": "id",
          "type": "uint256"
        }
      ],
      "name": "CreateMemeChicken",
      "type": "event"
    },
    {
      "anonymous": false,
      "inputs": [
        {
          "indexed": true,
          "internalType": "uint256",
          "name": "id",
          "type": "uint256"
        }
      ],
      "name": "CreateRareChicken",
      "type": "event"
    },
    {
      "anonymous": false,
      "inputs": [
        {
          "indexed": true,
          "internalType": "address",
          "name": "previousOwner",
          "type": "address"
        },
        {
          "indexed": true,
          "internalType": "address",
          "name": "newOwner",
          "type": "address"
        }
      ],
      "name": "OwnershipTransferred",
      "type": "event"
    },
    {
      "anonymous": false,
      "inputs": [
        {
          "indexed": true,
          "internalType": "address",
          "name": "from",
          "type": "address"
        },
        {
          "indexed": true,
          "internalType": "address",
          "name": "to",
          "type": "address"
        },
        {
          "indexed": true,
          "internalType": "uint256",
          "name": "tokenId",
          "type": "uint256"
        }
      ],
      "name": "Transfer",
      "type": "event"
    },
    {
      "constant": true,
      "inputs": [],
      "name": "BREEDERFEE",
      "outputs": [
        {
          "internalType": "uint256",
          "name": "",
          "type": "uint256"
        }
      ],
      "payable": false,
      "stateMutability": "view",
      "type": "function"
    },
    {
      "constant": true,
      "inputs": [],
      "name": "COMMONPACK",
      "outputs": [
        {
          "internalType": "uint256",
          "name": "",
          "type": "uint256"
        }
      ],
      "payable": false,
      "stateMutability": "view",
      "type": "function"
    },
    {
      "constant": true,
      "inputs": [],
      "name": "COMMONPRICE",
      "outputs": [
        {
          "internalType": "uint256",
          "name": "",
          "type": "uint256"
        }
      ],
      "payable": false,
      "stateMutability": "view",
      "type": "function"
    },
    {
      "constant": true,
      "inputs": [],
      "name": "MAX_COMMONPACK",
      "outputs": [
        {
          "internalType": "uint256",
          "name": "",
          "type": "uint256"
        }
      ],
      "payable": false,
      "stateMutability": "view",
      "type": "function"
    },
    {
      "constant": true,
      "inputs": [],
      "name": "MAX_MEMEBREED",
      "outputs": [
        {
          "internalType": "uint256",
          "name": "",
          "type": "uint256"
        }
      ],
      "payable": false,
      "stateMutability": "view",
      "type": "function"
    },
    {
      "constant": true,
      "inputs": [],
      "name": "MAX_MEMEPACK",
      "outputs": [
        {
          "internalType": "uint256",
          "name": "",
          "type": "uint256"
        }
      ],
      "payable": false,
      "stateMutability": "view",
      "type": "function"
    },
    {
      "constant": true,
      "inputs": [],
      "name": "MAX_RAREPACK",
      "outputs": [
        {
          "internalType": "uint256",
          "name": "",
          "type": "uint256"
        }
      ],
      "payable": false,
      "stateMutability": "view",
      "type": "function"
    },
    {
      "constant": true,
      "inputs": [],
      "name": "MEMEBREED",
      "outputs": [
        {
          "internalType": "uint256",
          "name": "",
          "type": "uint256"
        }
      ],
      "payable": false,
      "stateMutability": "view",
      "type": "function"
    },
    {
      "constant": true,
      "inputs": [],
      "name": "MEMEPACK",
      "outputs": [
        {
          "internalType": "uint256",
          "name": "",
          "type": "uint256"
        }
      ],
      "payable": false,
      "stateMutability": "view",
      "type": "function"
    },
    {
      "constant": true,
      "inputs": [],
      "name": "MEMEPRICE",
      "outputs": [
        {
          "internalType": "uint256",
          "name": "",
          "type": "uint256"
        }
      ],
      "payable": false,
      "stateMutability": "view",
      "type": "function"
    },
    {
      "constant": true,
      "inputs": [],
      "name": "RAREPACK",
      "outputs": [
        {
          "internalType": "uint256",
          "name": "",
          "type": "uint256"
        }
      ],
      "payable": false,
      "stateMutability": "view",
      "type": "function"
    },
    {
      "constant": true,
      "inputs": [],
      "name": "RAREPRICE",
      "outputs": [
        {
          "internalType": "uint256",
          "name": "",
          "type": "uint256"
        }
      ],
      "payable": false,
      "stateMutability": "view",
      "type": "function"
    },
    {
      "constant": false,
      "inputs": [
        {
          "internalType": "address",
          "name": "to",
          "type": "address"
        },
        {
          "internalType": "uint256",
          "name": "tokenId",
          "type": "uint256"
        }
      ],
      "name": "approve",
      "outputs": [],
      "payable": false,
      "stateMutability": "nonpayable",
      "type": "function"
    },
    {
      "constant": true,
      "inputs": [
        {
          "internalType": "address",
          "name": "owner",
          "type": "address"
        }
      ],
      "name": "balanceOf",
      "outputs": [
        {
          "internalType": "uint256",
          "name": "",
          "type": "uint256"
        }
      ],
      "payable": false,
      "stateMutability": "view",
      "type": "function"
    },
    {
      "constant": true,
      "inputs": [],
      "name": "creatorAddress",
      "outputs": [
        {
          "internalType": "address payable",
          "name": "",
          "type": "address"
        }
      ],
      "payable": false,
      "stateMutability": "view",
      "type": "function"
    },
    {
      "constant": true,
      "inputs": [],
      "name": "donationAddress",
      "outputs": [
        {
          "internalType": "address payable",
          "name": "",
          "type": "address"
        }
      ],
      "payable": false,
      "stateMutability": "view",
      "type": "function"
    },
    {
      "constant": true,
      "inputs": [
        {
          "internalType": "uint256",
          "name": "tokenId",
          "type": "uint256"
        }
      ],
      "name": "getApproved",
      "outputs": [
        {
          "internalType": "address",
          "name": "",
          "type": "address"
        }
      ],
      "payable": false,
      "stateMutability": "view",
      "type": "function"
    },
    {
      "constant": true,
      "inputs": [
        {
          "internalType": "address",
          "name": "owner",
          "type": "address"
        },
        {
          "internalType": "address",
          "name": "operator",
          "type": "address"
        }
      ],
      "name": "isApprovedForAll",
      "outputs": [
        {
          "internalType": "bool",
          "name": "",
          "type": "bool"
        }
      ],
      "payable": false,
      "stateMutability": "view",
      "type": "function"
    },
    {
      "constant": true,
      "inputs": [],
      "name": "name",
      "outputs": [
        {
          "internalType": "string",
          "name": "",
          "type": "string"
        }
      ],
      "payable": false,
      "stateMutability": "view",
      "type": "function"
    },
    {
      "constant": true,
      "inputs": [],
      "name": "owner",
      "outputs": [
        {
          "internalType": "address",
          "name": "",
          "type": "address"
        }
      ],
      "payable": false,
      "stateMutability": "view",
      "type": "function"
    },
    {
      "constant": true,
      "inputs": [
        {
          "internalType": "uint256",
          "name": "tokenId",
          "type": "uint256"
        }
      ],
      "name": "ownerOf",
      "outputs": [
        {
          "internalType": "address",
          "name": "",
          "type": "address"
        }
      ],
      "payable": false,
      "stateMutability": "view",
      "type": "function"
    },
    {
      "constant": false,
      "inputs": [],
      "name": "renounceOwnership",
      "outputs": [],
      "payable": false,
      "stateMutability": "nonpayable",
      "type": "function"
    },
    {
      "constant": true,
      "inputs": [],
      "name": "reveal_timestamp",
      "outputs": [
        {
          "internalType": "uint256",
          "name": "",
          "type": "uint256"
        }
      ],
      "payable": false,
      "stateMutability": "view",
      "type": "function"
    },
    {
      "constant": false,
      "inputs": [
        {
          "internalType": "address",
          "name": "from",
          "type": "address"
        },
        {
          "internalType": "address",
          "name": "to",
          "type": "address"
        },
        {
          "internalType": "uint256",
          "name": "tokenId",
          "type": "uint256"
        }
      ],
      "name": "safeTransferFrom",
      "outputs": [],
      "payable": false,
      "stateMutability": "nonpayable",
      "type": "function"
    },
    {
      "constant": false,
      "inputs": [
        {
          "internalType": "address",
          "name": "from",
          "type": "address"
        },
        {
          "internalType": "address",
          "name": "to",
          "type": "address"
        },
        {
          "internalType": "uint256",
          "name": "tokenId",
          "type": "uint256"
        },
        {
          "internalType": "bytes",
          "name": "_data",
          "type": "bytes"
        }
      ],
      "name": "safeTransferFrom",
      "outputs": [],
      "payable": false,
      "stateMutability": "nonpayable",
      "type": "function"
    },
    {
      "constant": false,
      "inputs": [
        {
          "internalType": "address",
          "name": "to",
          "type": "address"
        },
        {
          "internalType": "bool",
          "name": "approved",
          "type": "bool"
        }
      ],
      "name": "setApprovalForAll",
      "outputs": [],
      "payable": false,
      "stateMutability": "nonpayable",
      "type": "function"
    },
    {
      "constant": true,
      "inputs": [
        {
          "internalType": "bytes4",
          "name": "interfaceId",
          "type": "bytes4"
        }
      ],
      "name": "supportsInterface",
      "outputs": [
        {
          "internalType": "bool",
          "name": "",
          "type": "bool"
        }
      ],
      "payable": false,
      "stateMutability": "view",
      "type": "function"
    },
    {
      "constant": true,
      "inputs": [],
      "name": "symbol",
      "outputs": [
        {
          "internalType": "string",
          "name": "",
          "type": "string"
        }
      ],
      "payable": false,
      "stateMutability": "view",
      "type": "function"
    },
    {
      "constant": true,
      "inputs": [
        {
          "internalType": "uint256",
          "name": "index",
          "type": "uint256"
        }
      ],
      "name": "tokenByIndex",
      "outputs": [
        {
          "internalType": "uint256",
          "name": "",
          "type": "uint256"
        }
      ],
      "payable": false,
      "stateMutability": "view",
      "type": "function"
    },
    {
      "constant": true,
      "inputs": [
        {
          "internalType": "address",
          "name": "owner",
          "type": "address"
        },
        {
          "internalType": "uint256",
          "name": "index",
          "type": "uint256"
        }
      ],
      "name": "tokenOfOwnerByIndex",
      "outputs": [
        {
          "internalType": "uint256",
          "name": "",
          "type": "uint256"
        }
      ],
      "payable": false,
      "stateMutability": "view",
      "type": "function"
    },
    {
      "constant": true,
      "inputs": [
        {
          "internalType": "uint256",
          "name": "tokenId",
          "type": "uint256"
        }
      ],
      "name": "tokenURI",
      "outputs": [
        {
          "internalType": "string",
          "name": "",
          "type": "string"
        }
      ],
      "payable": false,
      "stateMutability": "view",
      "type": "function"
    },
    {
      "constant": true,
      "inputs": [],
      "name": "totalSupply",
      "outputs": [
        {
          "internalType": "uint256",
          "name": "",
          "type": "uint256"
        }
      ],
      "payable": false,
      "stateMutability": "view",
      "type": "function"
    },
    {
      "constant": false,
      "inputs": [
        {
          "internalType": "address",
          "name": "from",
          "type": "address"
        },
        {
          "internalType": "address",
          "name": "to",
          "type": "address"
        },
        {
          "internalType": "uint256",
          "name": "tokenId",
          "type": "uint256"
        }
      ],
      "name": "transferFrom",
      "outputs": [],
      "payable": false,
      "stateMutability": "nonpayable",
      "type": "function"
    },
    {
      "constant": false,
      "inputs": [
        {
          "internalType": "address",
          "name": "newOwner",
          "type": "address"
        }
      ],
      "name": "transferOwnership",
      "outputs": [],
      "payable": false,
      "stateMutability": "nonpayable",
      "type": "function"
    },
    {
      "constant": true,
      "inputs": [],
      "name": "totalMint",
      "outputs": [
        {
          "internalType": "uint256",
          "name": "",
          "type": "uint256"
        }
      ],
      "payable": false,
      "stateMutability": "view",
      "type": "function"
    },
    {
      "constant": false,
      "inputs": [
        {
          "internalType": "address",
          "name": "_to",
          "type": "address"
        },
        {
          "internalType": "string",
          "name": "_tokenURI",
          "type": "string"
        }
      ],
      "name": "starterMint",
      "outputs": [],
      "payable": false,
      "stateMutability": "nonpayable",
      "type": "function"
    },
    {
      "constant": false,
      "inputs": [
        {
          "internalType": "address",
          "name": "_to",
          "type": "address"
        },
        {
          "internalType": "string",
          "name": "_tokenURI",
          "type": "string"
        }
      ],
      "name": "mintMemePack",
      "outputs": [],
      "payable": true,
      "stateMutability": "payable",
      "type": "function"
    },
    {
      "constant": false,
      "inputs": [
        {
          "internalType": "address",
          "name": "_to",
          "type": "address"
        },
        {
          "internalType": "string",
          "name": "_tokenURI",
          "type": "string"
        }
      ],
      "name": "mintMemeBreed",
      "outputs": [],
      "payable": true,
      "stateMutability": "payable",
      "type": "function"
    },
    {
      "constant": false,
      "inputs": [
        {
          "internalType": "address",
          "name": "_to",
          "type": "address"
        },
        {
          "internalType": "string",
          "name": "_tokenURI",
          "type": "string"
        }
      ],
      "name": "mintRarePack",
      "outputs": [],
      "payable": true,
      "stateMutability": "payable",
      "type": "function"
    },
    {
      "constant": false,
      "inputs": [
        {
          "internalType": "address",
          "name": "_to",
          "type": "address"
        },
        {
          "internalType": "string",
          "name": "_tokenURI",
          "type": "string"
        }
      ],
      "name": "mintRareBreed",
      "outputs": [],
      "payable": true,
      "stateMutability": "payable",
      "type": "function"
    },
    {
      "constant": false,
      "inputs": [
        {
          "internalType": "address",
          "name": "_to",
          "type": "address"
        },
        {
          "internalType": "string",
          "name": "_tokenURI",
          "type": "string"
        }
      ],
      "name": "mintCommonPack",
      "outputs": [],
      "payable": true,
      "stateMutability": "payable",
      "type": "function"
    },
    {
      "constant": false,
      "inputs": [
        {
          "internalType": "address",
          "name": "_to",
          "type": "address"
        },
        {
          "internalType": "string",
          "name": "_tokenURI",
          "type": "string"
        }
      ],
      "name": "generalBreed",
      "outputs": [],
      "payable": true,
      "stateMutability": "payable",
      "type": "function"
    },
    {
      "constant": false,
      "inputs": [],
      "name": "withdrawALL",
      "outputs": [],
      "payable": true,
      "stateMutability": "payable",
      "type": "function"
    }
  ],
  "bytecode": "0x60806040526000600d556000600e556000600f5560006010553480156200002557600080fd5b50604080518082018252600e81526d43727970746f436869636b656e7360901b6020808301919091528251808401909352600783526621a424a1a5a2a760c91b90830152908181620000876301ffc9a760e01b6001600160e01b036200013116565b620000a26380ac58cd60e01b6001600160e01b036200013116565b620000bd63780e9d6360e01b6001600160e01b036200013116565b8151620000d29060099060208501906200020d565b508051620000e890600a9060208401906200020d565b5062000104635b5e139f60e01b6001600160e01b036200013116565b505050506200012b6200011c620001b660201b60201c565b6001600160e01b03620001bb16565b620002af565b6001600160e01b0319808216141562000191576040805162461bcd60e51b815260206004820152601c60248201527f4552433136353a20696e76616c696420696e7465726661636520696400000000604482015290519081900360640190fd5b6001600160e01b0319166000908152602081905260409020805460ff19166001179055565b335b90565b600c80546001600160a01b038381166001600160a01b0319831681179093556040519116919082907f8be0079c531659141344cd1fd0a4f28419497f9722a3daafe3b4186f6b6457e090600090a35050565b828054600181600116156101000203166002900490600052602060002090601f016020900481019282601f106200025057805160ff191683800117855562000280565b8280016001018555821562000280579182015b828111156200028057825182559160200191906001019062000263565b506200028e92915062000292565b5090565b620001b891905b808211156200028e576000815560010162000299565b61263680620002bf6000396000f3fe60806040526004361061025c5760003560e01c8063715018a611610144578063c87b56dd116100b6578063e3e1047a1161007a578063e3e1047a14610c93578063e927fc5c14610ca8578063e985e9c514610cbd578063ec034bed14610cf8578063ee085a3b146109e4578063f2fde38b14610d0d5761025c565b8063c87b56dd14610aca578063c99ea22414610af4578063d1e8f8f514610ba8578063d2cd890314610bbd578063e284952b14610c7e5761025c565b80639debb7c4116101085780639debb7c4146108d85780639f1fc68a146108e0578063a22cb46514610994578063aababba9146109cf578063b5d98405146109e4578063b88d4fde146109f95761025c565b8063715018a6146107d0578063776c8341146107e55780637df22635146107fa5780638da5cb5b146108ae57806395d89b41146108c35761025c565b8063325bfc05116101dd5780634d62d7b1116101a15780634d62d7b11461070a5780634f6ccce71461071f57806353754cd01461074957806359a7715a1461075e5780636352211e1461077357806370a082311461079d5761025c565b8063325bfc05146106735780633a86ba3a1461068857806342842e0e1461069d57806345b458d1146106e05780634bc4de3f146106f55761025c565b8063099f0ab511610224578063099f0ab5146104685780630cc8cb3a1461051c57806318160ddd146105d057806323b872dd146105f75780632f745c591461063a5761025c565b806301ffc9a71461026157806306fdde03146102a9578063076ba7fd14610333578063081812fc146103e9578063095ea7b31461042f575b600080fd5b34801561026d57600080fd5b506102956004803603602081101561028457600080fd5b50356001600160e01b031916610d40565b604080519115158252519081900360200190f35b3480156102b557600080fd5b506102be610d5f565b6040805160208082528351818301528351919283929083019185019080838360005b838110156102f85781810151838201526020016102e0565b50505050905090810190601f1680156103255780820380516001836020036101000a031916815260200191505b509250505060405180910390f35b6103e76004803603604081101561034957600080fd5b6001600160a01b038235169190810190604081016020820135600160201b81111561037357600080fd5b82018360208201111561038557600080fd5b803590602001918460018302840111600160201b831117156103a657600080fd5b91908080601f016020809104026020016040519081016040528093929190818152602001838380828437600092019190915250929550610df6945050505050565b005b3480156103f557600080fd5b506104136004803603602081101561040c57600080fd5b5035610e40565b604080516001600160a01b039092168252519081900360200190f35b34801561043b57600080fd5b506103e76004803603604081101561045257600080fd5b506001600160a01b038135169060200135610ea2565b6103e76004803603604081101561047e57600080fd5b6001600160a01b038235169190810190604081016020820135600160201b8111156104a857600080fd5b8201836020820111156104ba57600080fd5b803590602001918460018302840111600160201b831117156104db57600080fd5b91908080601f016020809104026020016040519081016040528093929190818152602001838380828437600092019190915250929550610fb3945050505050565b6103e76004803603604081101561053257600080fd5b6001600160a01b038235169190810190604081016020820135600160201b81111561055c57600080fd5b82018360208201111561056e57600080fd5b803590602001918460018302840111600160201b8311171561058f57600080fd5b91908080601f016020809104026020016040519081016040528093929190818152602001838380828437600092019190915250929550611035945050505050565b3480156105dc57600080fd5b506105e561109e565b60408051918252519081900360200190f35b34801561060357600080fd5b506103e76004803603606081101561061a57600080fd5b506001600160a01b038135811691602081013590911690604001356110a4565b34801561064657600080fd5b506105e56004803603604081101561065d57600080fd5b506001600160a01b0381351690602001356110f4565b34801561067f57600080fd5b506105e5611174565b34801561069457600080fd5b506105e5611179565b3480156106a957600080fd5b506103e7600480360360608110156106c057600080fd5b506001600160a01b03813581169160208101359091169060400135611185565b3480156106ec57600080fd5b506105e56111a0565b34801561070157600080fd5b506105e56111a6565b34801561071657600080fd5b506105e56111b1565b34801561072b57600080fd5b506105e56004803603602081101561074257600080fd5b50356111b7565b34801561075557600080fd5b506105e561121d565b34801561076a57600080fd5b506105e5611223565b34801561077f57600080fd5b506104136004803603602081101561079657600080fd5b5035611232565b3480156107a957600080fd5b506105e5600480360360208110156107c057600080fd5b50356001600160a01b0316611286565b3480156107dc57600080fd5b506103e76112ee565b3480156107f157600080fd5b506105e561136e565b6103e76004803603604081101561081057600080fd5b6001600160a01b038235169190810190604081016020820135600160201b81111561083a57600080fd5b82018360208201111561084c57600080fd5b803590602001918460018302840111600160201b8311171561086d57600080fd5b91908080601f016020809104026020016040519081016040528093929190818152602001838380828437600092019190915250929550611374945050505050565b3480156108ba57600080fd5b506104136113f6565b3480156108cf57600080fd5b506102be611405565b6103e7611466565b6103e7600480360360408110156108f657600080fd5b6001600160a01b038235169190810190604081016020820135600160201b81111561092057600080fd5b82018360208201111561093257600080fd5b803590602001918460018302840111600160201b8311171561095357600080fd5b91908080601f01602080910402602001604051908101604052809392919081815260200183838082843760009201919091525092955061158c945050505050565b3480156109a057600080fd5b506103e7600480360360408110156109b757600080fd5b506001600160a01b038135169060200135151561160d565b3480156109db57600080fd5b506105e56116d9565b3480156109f057600080fd5b506105e56116df565b348015610a0557600080fd5b506103e760048036036080811015610a1c57600080fd5b6001600160a01b03823581169260208101359091169160408201359190810190608081016060820135600160201b811115610a5657600080fd5b820183602082011115610a6857600080fd5b803590602001918460018302840111600160201b83111715610a8957600080fd5b91908080601f0160208091040260200160405190810160405280939291908181526020018383808284376000920191909152509295506116ea945050505050565b348015610ad657600080fd5b506102be60048036036020811015610aed57600080fd5b5035611742565b6103e760048036036040811015610b0a57600080fd5b6001600160a01b038235169190810190604081016020820135600160201b811115610b3457600080fd5b820183602082011115610b4657600080fd5b803590602001918460018302840111600160201b83111715610b6757600080fd5b91908080601f016020809104026020016040519081016040528093929190818152602001838380828437600092019190915250929550611827945050505050565b348015610bb457600080fd5b506105e56118a9565b348015610bc957600080fd5b506103e760048036036040811015610be057600080fd5b6001600160a01b038235169190810190604081016020820135600160201b811115610c0a57600080fd5b820183602082011115610c1c57600080fd5b803590602001918460018302840111600160201b83111715610c3d57600080fd5b91908080601f016020809104026020016040519081016040528093929190818152602001838380828437600092019190915250929550610e0a945050505050565b348015610c8a57600080fd5b506105e56118ae565b348015610c9f57600080fd5b506105e56118b4565b348015610cb457600080fd5b506104136118be565b348015610cc957600080fd5b5061029560048036036040811015610ce057600080fd5b506001600160a01b03813581169160200135166118d6565b348015610d0457600080fd5b50610413611904565b348015610d1957600080fd5b506103e760048036036020811015610d3057600080fd5b50356001600160a01b031661191c565b6001600160e01b03191660009081526020819052604090205460ff1690565b60098054604080516020601f6002600019610100600188161502019095169490940493840181900481028201810190925282815260609390929091830182828015610deb5780601f10610dc057610100808354040283529160200191610deb565b820191906000526020600020905b815481529060010190602001808311610dce57829003601f168201915b505050505090505b90565b66038d7ea4c68000341015610e0a57600080fd5b6000610e256001610e1961109e565b9063ffffffff6119e116565b9050610e318382611a42565b610e3b8183611a5f565b505050565b6000610e4b82611ac2565b610e865760405162461bcd60e51b815260040180806020018281038252602c8152602001806124d4602c913960400191505060405180910390fd5b506000908152600260205260409020546001600160a01b031690565b6000610ead82611232565b9050806001600160a01b0316836001600160a01b03161415610f005760405162461bcd60e51b81526004018080602001828103825260218152602001806125846021913960400191505060405180910390fd5b336001600160a01b0382161480610f1c5750610f1c81336118d6565b610f575760405162461bcd60e51b81526004018080602001828103825260388152602001806124286038913960400191505060405180910390fd5b60008281526002602052604080822080546001600160a01b0319166001600160a01b0387811691821790925591518593918516917f8c5be1e5ebec7d5bd14f71427d1e84f3dd0314c0f7b2291e5b200ac8c7c3b92591a4505050565b66470de4df820000341015610fc757600080fd5b610104600f5410610fd757600080fd5b6000610fe66001610e1961109e565b9050610ff28382611a42565b610ffc8183611a5f565b600f8054600101905560405181907fd843844154a85aa332fdf968122c937c95893ad39ad83aa9d66bcf4ebe46d77390600090a2505050565b66038d7ea4c6800034101561104957600080fd5b60006110586001610e1961109e565b90506110648382611a42565b61106e8183611a5f565b60405181907fd843844154a85aa332fdf968122c937c95893ad39ad83aa9d66bcf4ebe46d77390600090a2505050565b60075490565b6110ae3382611adf565b6110e95760405162461bcd60e51b81526004018080602001828103825260318152602001806125a56031913960400191505060405180910390fd5b610e3b838383611b83565b60006110ff83611286565b821061113c5760405162461bcd60e51b815260040180806020018281038252602b815260200180612355602b913960400191505060405180910390fd5b6001600160a01b038316600090815260056020526040902080548390811061116057fe5b906000526020600020015490505b92915050565b602d81565b67016345785d8a000081565b610e3b838383604051806020016040528060008152506116ea565b600f5481565b66470de4df82000081565b60105481565b60006111c161109e565b82106111fe5760405162461bcd60e51b815260040180806020018281038252602c8152602001806125d6602c913960400191505060405180910390fd5b6007828154811061120b57fe5b90600052602060002001549050919050565b600d5481565b600061122d61109e565b905090565b6000818152600160205260408120546001600160a01b03168061116e5760405162461bcd60e51b815260040180806020018281038252602981526020018061248a6029913960400191505060405180910390fd5b60006001600160a01b0382166112cd5760405162461bcd60e51b815260040180806020018281038252602a815260200180612460602a913960400191505060405180910390fd5b6001600160a01b038216600090815260036020526040902061116e90611ba2565b6112f6611ba6565b6001600160a01b03166113076113f6565b6001600160a01b031614611362576040805162461bcd60e51b815260206004820181905260248201527f4f776e61626c653a2063616c6c6572206973206e6f7420746865206f776e6572604482015290519081900360640190fd5b61136c6000611baa565b565b61012c81565b67016345785d8a000034101561138957600080fd5b6064600d541061139857600080fd5b60006113a76001610e1961109e565b90506113b38382611a42565b6113bd8183611a5f565b600d8054600101905560405181907f1126b4f1c8211b5de7f8790ad31e9cafcf7486775ca19d8efdd444d1699a367c90600090a2505050565b600c546001600160a01b031690565b600a8054604080516020601f6002600019610100600188161502019095169490940493840181900481028201810190925282815260609390929091830182828015610deb5780601f10610dc057610100808354040283529160200191610deb565b61146e611ba6565b6001600160a01b031661147f6113f6565b6001600160a01b0316146114da576040805162461bcd60e51b815260206004820181905260248201527f4f776e61626c653a2063616c6c6572206973206e6f7420746865206f776e6572604482015290519081900360640190fd5b47806114e557600080fd5b73e619dfa3c6c44e00cbc3558c7f2e2e2e30a5ce516108fc61151f606461151385602363ffffffff611bfc16565b9063ffffffff611c5516565b6040518115909202916000818181858888f19350505050158015611547573d6000803e3d6000fd5b50604051733b9da5bc36cdd2f99b0ed6a2fa8f35af74bc2b7f904780156108fc02916000818181858888f19350505050158015611588573d6000803e3d6000fd5b5050565b66038d7ea4c680003410156115a057600080fd5b602d600e54106115af57600080fd5b60006115be6001610e1961109e565b90506115ca8382611a42565b6115d48183611a5f565b600e8054600101905560405181907f1126b4f1c8211b5de7f8790ad31e9cafcf7486775ca19d8efdd444d1699a367c90600090a2505050565b6001600160a01b03821633141561166b576040805162461bcd60e51b815260206004820152601960248201527f4552433732313a20617070726f766520746f2063616c6c657200000000000000604482015290519081900360640190fd5b3360008181526004602090815260408083206001600160a01b03871680855290835292819020805460ff1916861515908117909155815190815290519293927f17307eab39ab6107e8899845ad3d59bd9653f200f220920489ca2b5937696c31929181900390910190a35050565b600e5481565b66038d7ea4c6800081565b6116f58484846110a4565b61170184848484611cbf565b61173c5760405162461bcd60e51b81526004018080602001828103825260328152602001806123806032913960400191505060405180910390fd5b50505050565b606061174d82611ac2565b6117885760405162461bcd60e51b815260040180806020018281038252602f815260200180612555602f913960400191505060405180910390fd5b6000828152600b602090815260409182902080548351601f60026000196101006001861615020190931692909204918201849004840281018401909452808452909183018282801561181b5780601f106117f05761010080835404028352916020019161181b565b820191906000526020600020905b8154815290600101906020018083116117fe57829003601f168201915b50505050509050919050565b66038d7ea4c6800034101561183b57600080fd5b61012c6010541061184b57600080fd5b600061185a6001610e1961109e565b90506118668382611a42565b6118708183611a5f565b60108054600101905560405181907f44b72543416d762945011aa3d44cba376ccaf27ff73f48f168649535a6401c8790600090a2505050565b606481565b61010481565b65017bf0d6958081565b733b9da5bc36cdd2f99b0ed6a2fa8f35af74bc2b7f81565b6001600160a01b03918216600090815260046020908152604080832093909416825291909152205460ff1690565b73e619dfa3c6c44e00cbc3558c7f2e2e2e30a5ce5181565b611924611ba6565b6001600160a01b03166119356113f6565b6001600160a01b031614611990576040805162461bcd60e51b815260206004820181905260248201527f4f776e61626c653a2063616c6c6572206973206e6f7420746865206f776e6572604482015290519081900360640190fd5b6001600160a01b0381166119d55760405162461bcd60e51b81526004018080602001828103825260268152602001806123b26026913960400191505060405180910390fd5b6119de81611baa565b50565b600082820183811015611a3b576040805162461bcd60e51b815260206004820152601b60248201527f536166654d6174683a206164646974696f6e206f766572666c6f770000000000604482015290519081900360640190fd5b9392505050565b611a4c8282611df2565b611a568282611f23565b61158881611f61565b611a6882611ac2565b611aa35760405162461bcd60e51b815260040180806020018281038252602c815260200180612500602c913960400191505060405180910390fd5b6000828152600b602090815260409091208251610e3b9284019061229c565b6000908152600160205260409020546001600160a01b0316151590565b6000611aea82611ac2565b611b255760405162461bcd60e51b815260040180806020018281038252602c8152602001806123fc602c913960400191505060405180910390fd5b6000611b3083611232565b9050806001600160a01b0316846001600160a01b03161480611b6b5750836001600160a01b0316611b6084610e40565b6001600160a01b0316145b80611b7b5750611b7b81856118d6565b949350505050565b611b8e838383611fa5565b611b9883826120e9565b610e3b8282611f23565b5490565b3390565b600c80546001600160a01b038381166001600160a01b0319831681179093556040519116919082907f8be0079c531659141344cd1fd0a4f28419497f9722a3daafe3b4186f6b6457e090600090a35050565b600082611c0b5750600061116e565b82820282848281611c1857fe5b0414611a3b5760405162461bcd60e51b81526004018080602001828103825260218152602001806124b36021913960400191505060405180910390fd5b6000808211611cab576040805162461bcd60e51b815260206004820152601a60248201527f536166654d6174683a206469766973696f6e206279207a65726f000000000000604482015290519081900360640190fd5b6000828481611cb657fe5b04949350505050565b6000611cd3846001600160a01b03166121de565b611cdf57506001611b7b565b604051630a85bd0160e11b815233600482018181526001600160a01b03888116602485015260448401879052608060648501908152865160848601528651600095928a169463150b7a029490938c938b938b939260a4019060208501908083838e5b83811015611d59578181015183820152602001611d41565b50505050905090810190601f168015611d865780820380516001836020036101000a031916815260200191505b5095505050505050602060405180830381600087803b158015611da857600080fd5b505af1158015611dbc573d6000803e3d6000fd5b505050506040513d6020811015611dd257600080fd5b50516001600160e01b031916630a85bd0160e11b14915050949350505050565b6001600160a01b038216611e4d576040805162461bcd60e51b815260206004820181905260248201527f4552433732313a206d696e7420746f20746865207a65726f2061646472657373604482015290519081900360640190fd5b611e5681611ac2565b15611ea8576040805162461bcd60e51b815260206004820152601c60248201527f4552433732313a20746f6b656e20616c7265616479206d696e74656400000000604482015290519081900360640190fd5b600081815260016020908152604080832080546001600160a01b0319166001600160a01b038716908117909155835260039091529020611ee7906121e4565b60405181906001600160a01b038416906000907fddf252ad1be2c89b69c2b068fc378daa952ba7f163c4a11628f55a4df523b3ef908290a45050565b6001600160a01b0390911660009081526005602081815260408084208054868652600684529185208290559282526001810183559183529091200155565b600780546000838152600860205260408120829055600182018355919091527fa66cc928b5edb82af9bd49922954155ab7b0942694bea4ce44661d9a8736c6880155565b826001600160a01b0316611fb882611232565b6001600160a01b031614611ffd5760405162461bcd60e51b815260040180806020018281038252602981526020018061252c6029913960400191505060405180910390fd5b6001600160a01b0382166120425760405162461bcd60e51b81526004018080602001828103825260248152602001806123d86024913960400191505060405180910390fd5b61204b816121ed565b6001600160a01b038316600090815260036020526040902061206c90612228565b6001600160a01b038216600090815260036020526040902061208d906121e4565b60008181526001602052604080822080546001600160a01b0319166001600160a01b0386811691821790925591518493918716917fddf252ad1be2c89b69c2b068fc378daa952ba7f163c4a11628f55a4df523b3ef91a4505050565b6001600160a01b03821660009081526005602052604081205461211390600163ffffffff61223f16565b6000838152600660205260409020549091508082146121ae576001600160a01b038416600090815260056020526040812080548490811061215057fe5b906000526020600020015490508060056000876001600160a01b03166001600160a01b03168152602001908152602001600020838154811061218e57fe5b600091825260208083209091019290925591825260069052604090208190555b6001600160a01b03841660009081526005602052604090208054906121d790600019830161231a565b5050505050565b3b151590565b80546001019055565b6000818152600260205260409020546001600160a01b0316156119de57600090815260026020526040902080546001600160a01b0319169055565b805461223b90600163ffffffff61223f16565b9055565b600082821115612296576040805162461bcd60e51b815260206004820152601e60248201527f536166654d6174683a207375627472616374696f6e206f766572666c6f770000604482015290519081900360640190fd5b50900390565b828054600181600116156101000203166002900490600052602060002090601f016020900481019282601f106122dd57805160ff191683800117855561230a565b8280016001018555821561230a579182015b8281111561230a5782518255916020019190600101906122ef565b5061231692915061233a565b5090565b815481835581811115610e3b57600083815260209020610e3b9181019083015b610df391905b80821115612316576000815560010161234056fe455243373231456e756d657261626c653a206f776e657220696e646578206f7574206f6620626f756e64734552433732313a207472616e7366657220746f206e6f6e20455243373231526563656976657220696d706c656d656e7465724f776e61626c653a206e6577206f776e657220697320746865207a65726f20616464726573734552433732313a207472616e7366657220746f20746865207a65726f20616464726573734552433732313a206f70657261746f7220717565727920666f72206e6f6e6578697374656e7420746f6b656e4552433732313a20617070726f76652063616c6c6572206973206e6f74206f776e6572206e6f7220617070726f76656420666f7220616c6c4552433732313a2062616c616e636520717565727920666f7220746865207a65726f20616464726573734552433732313a206f776e657220717565727920666f72206e6f6e6578697374656e7420746f6b656e536166654d6174683a206d756c7469706c69636174696f6e206f766572666c6f774552433732313a20617070726f76656420717565727920666f72206e6f6e6578697374656e7420746f6b656e4552433732314d657461646174613a2055524920736574206f66206e6f6e6578697374656e7420746f6b656e4552433732313a207472616e73666572206f6620746f6b656e2074686174206973206e6f74206f776e4552433732314d657461646174613a2055524920717565727920666f72206e6f6e6578697374656e7420746f6b656e4552433732313a20617070726f76616c20746f2063757272656e74206f776e65724552433732313a207472616e736665722063616c6c6572206973206e6f74206f776e6572206e6f7220617070726f766564455243373231456e756d657261626c653a20676c6f62616c20696e646578206f7574206f6620626f756e6473a265627a7a723158206d3edddda05860970cdede6462de85eb36305246ba8cd3efe48acab7f679bf9664736f6c63430005100032",
  "source": "pragma solidity >=0.4.21 <0.6.0;\r\n\r\nimport \"./ERC721Full.sol\";\r\nimport \"./Ownable.sol\";\r\n\r\ncontract CryptoChickens is ERC721Full, Ownable {\r\n  using SafeMath for uint256;\r\n\r\n  uint256 public constant MAX_MEMEPACK = 100;\r\n  uint256 public constant MAX_MEMEBREED = 45;\r\n  uint256 public constant MAX_RAREPACK = 260;\r\n  uint256 public constant MAX_COMMONPACK = 300;\r\n  uint256 public constant reveal_timestamp = 1631833200000;\r\n  uint256 public constant MEMEPRICE = 1 * 10**17;\r\n  uint256 public constant RAREPRICE = 2 * 10**16;\r\n  uint256 public constant COMMONPRICE = 1 * 10**15;\r\n  uint256 public constant BREEDERFEE = 1 * 10**15;\r\n\r\n  address payable public constant creatorAddress = 0x3B9da5BC36CDd2f99b0eD6A2fa8F35Af74bc2b7F;\r\n  address payable public constant donationAddress = 0xE619DfA3c6C44E00cbc3558C7f2E2e2e30a5ce51;\r\n\r\n  uint256 public MEMEPACK = 0;\r\n  uint256 public MEMEBREED = 0;\r\n  uint256 public RAREPACK = 0;\r\n  uint256 public COMMONPACK = 0;\r\n\r\n  event CreateMemeChicken(uint256 indexed id);\r\n  event CreateRareChicken(uint256 indexed id);\r\n  event CreateCommonChicken(uint256 indexed id);\r\n  constructor() ERC721Full(\"CryptoChickens\", \"CHICKEN\") public {\r\n  }\r\n\r\n  function totalMint() public view returns (uint256) {\r\n    return totalSupply();\r\n  }\r\n\r\n  function starterMint(address _to, string memory _tokenURI) public {\r\n    uint _tokenId = totalSupply().add(1);\r\n    _mint(_to, _tokenId);\r\n    _setTokenURI(_tokenId, _tokenURI);\r\n  }\r\n\r\n  function mintMemePack(address _to, string memory _tokenURI) public payable {\r\n    require(msg.value >= MEMEPRICE);\r\n    require(MEMEPACK < MAX_MEMEPACK);\r\n    uint _tokenId = totalSupply().add(1);\r\n    _mint(_to, _tokenId);\r\n    _setTokenURI(_tokenId, _tokenURI);\r\n    MEMEPACK++;\r\n    emit CreateMemeChicken(_tokenId);\r\n  }\r\n\r\n  function mintMemeBreed(address _to, string memory _tokenURI) public payable {\r\n    require(msg.value >= BREEDERFEE);\r\n    require(MEMEBREED < MAX_MEMEBREED);\r\n    uint _tokenId = totalSupply().add(1);\r\n    _mint(_to, _tokenId);\r\n    _setTokenURI(_tokenId, _tokenURI);\r\n    MEMEBREED++;\r\n    emit CreateMemeChicken(_tokenId);\r\n  }\r\n\r\n  function mintRarePack(address _to, string memory _tokenURI) public payable {\r\n    require(msg.value >= RAREPRICE);\r\n    require(RAREPACK < MAX_RAREPACK);\r\n    uint _tokenId = totalSupply().add(1);\r\n    _mint(_to, _tokenId);\r\n    _setTokenURI(_tokenId, _tokenURI);\r\n    RAREPACK++;\r\n    emit CreateRareChicken(_tokenId);\r\n  }\r\n\r\n  function mintRareBreed(address _to, string memory _tokenURI) public payable {\r\n    require(msg.value >= BREEDERFEE);\r\n    uint _tokenId = totalSupply().add(1);\r\n    _mint(_to, _tokenId);\r\n    _setTokenURI(_tokenId, _tokenURI);\r\n    emit CreateRareChicken(_tokenId);\r\n  }\r\n\r\n  function mintCommonPack(address _to, string memory _tokenURI) public payable {\r\n    require(msg.value >= COMMONPRICE);\r\n    require(COMMONPACK < MAX_COMMONPACK);\r\n    uint _tokenId = totalSupply().add(1);\r\n    _mint(_to, _tokenId);\r\n    _setTokenURI(_tokenId, _tokenURI);\r\n    COMMONPACK++;\r\n    emit CreateCommonChicken(_tokenId);\r\n  }\r\n\r\n  function generalBreed(address _to, string memory _tokenURI) public payable {\r\n    require(msg.value >= BREEDERFEE);\r\n    uint _tokenId = totalSupply().add(1);\r\n    _mint(_to, _tokenId);\r\n    _setTokenURI(_tokenId, _tokenURI);\r\n  }\r\n\r\n  function withdrawALL() public payable onlyOwner {\r\n    uint256 balance = address(this).balance;\r\n    require(balance > 0);\r\n    donationAddress.transfer(balance.mul(35).div(100));\r\n    creatorAddress.transfer(address(this).balance);\r\n  }\r\n\r\n}\r\n",
  "sourcePath": "C:\\Users\\dhrus\\truffle\\mainagain\\contracts\\CryptoChickens.sol",
  "compiler": {
    "name": "solc",
    "version": "0.5.16+commit.9c3226ce.Emscripten.clang"
  },
  "schemaVersion": "3.4.3",
  "updatedAt": "2021-09-13T09:09:36.268Z",
  "networkType": "ethereum",
  "devdoc": {
    "methods": {
      "approve(address,uint256)": {
        "details": "Approves another address to transfer the given token ID The zero address indicates there is no approved address. There can only be one approved address per token at a given time. Can only be called by the token owner or an approved operator.",
        "params": {
          "to": "address to be approved for the given token ID",
          "tokenId": "uint256 ID of the token to be approved"
        }
      },
      "balanceOf(address)": {
        "details": "Gets the balance of the specified address.",
        "params": {
          "owner": "address to query the balance of"
        },
        "return": "uint256 representing the amount owned by the passed address"
      },
      "getApproved(uint256)": {
        "details": "Gets the approved address for a token ID, or zero if no address set Reverts if the token ID does not exist.",
        "params": {
          "tokenId": "uint256 ID of the token to query the approval of"
        },
        "return": "address currently approved for the given token ID"
      },
      "isApprovedForAll(address,address)": {
        "details": "Tells whether an operator is approved by a given owner.",
        "params": {
          "operator": "operator address which you want to query the approval of",
          "owner": "owner address which you want to query the approval of"
        },
        "return": "bool whether the given operator is approved by the given owner"
      },
      "name()": {
        "details": "Gets the token name.",
        "return": "string representing the token name"
      },
      "owner()": {
        "details": "Returns the address of the current owner."
      },
      "ownerOf(uint256)": {
        "details": "Gets the owner of the specified token ID.",
        "params": {
          "tokenId": "uint256 ID of the token to query the owner of"
        },
        "return": "address currently marked as the owner of the given token ID"
      },
      "renounceOwnership()": {
        "details": "Leaves the contract without owner. It will not be possible to call `onlyOwner` functions anymore. Can only be called by the current owner.      * NOTE: Renouncing ownership will leave the contract without an owner, thereby removing any functionality that is only available to the owner."
      },
      "safeTransferFrom(address,address,uint256)": {
        "details": "Safely transfers the ownership of a given token ID to another address If the target address is a contract, it must implement `onERC721Received`, which is called upon a safe transfer, and return the magic value `bytes4(keccak256(\"onERC721Received(address,address,uint256,bytes)\"))`; otherwise, the transfer is reverted. Requires the msg.sender to be the owner, approved, or operator",
        "params": {
          "from": "current owner of the token",
          "to": "address to receive the ownership of the given token ID",
          "tokenId": "uint256 ID of the token to be transferred"
        }
      },
      "safeTransferFrom(address,address,uint256,bytes)": {
        "details": "Safely transfers the ownership of a given token ID to another address If the target address is a contract, it must implement `onERC721Received`, which is called upon a safe transfer, and return the magic value `bytes4(keccak256(\"onERC721Received(address,address,uint256,bytes)\"))`; otherwise, the transfer is reverted. Requires the msg.sender to be the owner, approved, or operator",
        "params": {
          "_data": "bytes data to send along with a safe transfer check",
          "from": "current owner of the token",
          "to": "address to receive the ownership of the given token ID",
          "tokenId": "uint256 ID of the token to be transferred"
        }
      },
      "setApprovalForAll(address,bool)": {
        "details": "Sets or unsets the approval of a given operator An operator is allowed to transfer all tokens of the sender on their behalf.",
        "params": {
          "approved": "representing the status of the approval to be set",
          "to": "operator address to set the approval"
        }
      },
      "supportsInterface(bytes4)": {
        "details": "See `IERC165.supportsInterface`.      * Time complexity O(1), guaranteed to always use less than 30 000 gas."
      },
      "symbol()": {
        "details": "Gets the token symbol.",
        "return": "string representing the token symbol"
      },
      "tokenByIndex(uint256)": {
        "details": "Gets the token ID at a given index of all the tokens in this contract Reverts if the index is greater or equal to the total number of tokens.",
        "params": {
          "index": "uint256 representing the index to be accessed of the tokens list"
        },
        "return": "uint256 token ID at the given index of the tokens list"
      },
      "tokenOfOwnerByIndex(address,uint256)": {
        "details": "Gets the token ID at a given index of the tokens list of the requested owner.",
        "params": {
          "index": "uint256 representing the index to be accessed of the requested tokens list",
          "owner": "address owning the tokens list to be accessed"
        },
        "return": "uint256 token ID at the given index of the tokens list owned by the requested address"
      },
      "tokenURI(uint256)": {
        "details": "Returns an URI for a given token ID. Throws if the token ID does not exist. May return an empty string.",
        "params": {
          "tokenId": "uint256 ID of the token to query"
        }
      },
      "totalSupply()": {
        "details": "Gets the total amount of tokens stored by the contract.",
        "return": "uint256 representing the total amount of tokens"
      },
      "transferFrom(address,address,uint256)": {
        "details": "Transfers the ownership of a given token ID to another address. Usage of this method is discouraged, use `safeTransferFrom` whenever possible. Requires the msg.sender to be the owner, approved, or operator.",
        "params": {
          "from": "current owner of the token",
          "to": "address to receive the ownership of the given token ID",
          "tokenId": "uint256 ID of the token to be transferred"
        }
      },
      "transferOwnership(address)": {
        "details": "Transfers ownership of the contract to a new account (`newOwner`). Can only be called by the current owner."
      }
    }
  },
  "userdoc": {
    "methods": {}
  }
}